{
  "_format": "hh-sol-artifact-1",
  "contractName": "Token",
  "sourceName": "contracts/Token.sol",
  "abi": [
    {
      "inputs": [
        {
          "internalType": "string",
          "name": "name",
          "type": "string"
        },
        {
          "internalType": "string",
          "name": "symbol",
          "type": "string"
        }
      ],
      "stateMutability": "nonpayable",
      "type": "constructor"
    },
    {
      "inputs": [
        {
          "internalType": "address",
          "name": "spender",
          "type": "address"
        },
        {
          "internalType": "uint256",
          "name": "allowance",
          "type": "uint256"
        },
        {
          "internalType": "uint256",
          "name": "needed",
          "type": "uint256"
        }
      ],
      "name": "ERC20InsufficientAllowance",
      "type": "error"
    },
    {
      "inputs": [
        {
          "internalType": "address",
          "name": "sender",
          "type": "address"
        },
        {
          "internalType": "uint256",
          "name": "balance",
          "type": "uint256"
        },
        {
          "internalType": "uint256",
          "name": "needed",
          "type": "uint256"
        }
      ],
      "name": "ERC20InsufficientBalance",
      "type": "error"
    },
    {
      "inputs": [
        {
          "internalType": "address",
          "name": "approver",
          "type": "address"
        }
      ],
      "name": "ERC20InvalidApprover",
      "type": "error"
    },
    {
      "inputs": [
        {
          "internalType": "address",
          "name": "receiver",
          "type": "address"
        }
      ],
      "name": "ERC20InvalidReceiver",
      "type": "error"
    },
    {
      "inputs": [
        {
          "internalType": "address",
          "name": "sender",
          "type": "address"
        }
      ],
      "name": "ERC20InvalidSender",
      "type": "error"
    },
    {
      "inputs": [
        {
          "internalType": "address",
          "name": "spender",
          "type": "address"
        }
      ],
      "name": "ERC20InvalidSpender",
      "type": "error"
    },
    {
      "inputs": [
        {
          "internalType": "address",
          "name": "owner",
          "type": "address"
        }
      ],
      "name": "OwnableInvalidOwner",
      "type": "error"
    },
    {
      "inputs": [
        {
          "internalType": "address",
          "name": "account",
          "type": "address"
        }
      ],
      "name": "OwnableUnauthorizedAccount",
      "type": "error"
    },
    {
      "anonymous": false,
      "inputs": [
        {
          "indexed": true,
          "internalType": "address",
          "name": "owner",
          "type": "address"
        },
        {
          "indexed": true,
          "internalType": "address",
          "name": "spender",
          "type": "address"
        },
        {
          "indexed": false,
          "internalType": "uint256",
          "name": "value",
          "type": "uint256"
        }
      ],
      "name": "Approval",
      "type": "event"
    },
    {
      "anonymous": false,
      "inputs": [
        {
          "indexed": true,
          "internalType": "address",
          "name": "previousOwner",
          "type": "address"
        },
        {
          "indexed": true,
          "internalType": "address",
          "name": "newOwner",
          "type": "address"
        }
      ],
      "name": "OwnershipTransferred",
      "type": "event"
    },
    {
      "anonymous": false,
      "inputs": [
        {
          "indexed": true,
          "internalType": "address",
          "name": "from",
          "type": "address"
        },
        {
          "indexed": true,
          "internalType": "address",
          "name": "to",
          "type": "address"
        },
        {
          "indexed": false,
          "internalType": "uint256",
          "name": "value",
          "type": "uint256"
        }
      ],
      "name": "Transfer",
      "type": "event"
    },
    {
      "inputs": [
        {
          "internalType": "address",
          "name": "owner",
          "type": "address"
        },
        {
          "internalType": "address",
          "name": "spender",
          "type": "address"
        }
      ],
      "name": "allowance",
      "outputs": [
        {
          "internalType": "uint256",
          "name": "",
          "type": "uint256"
        }
      ],
      "stateMutability": "view",
      "type": "function"
    },
    {
      "inputs": [
        {
          "internalType": "address",
          "name": "spender",
          "type": "address"
        },
        {
          "internalType": "uint256",
          "name": "value",
          "type": "uint256"
        }
      ],
      "name": "approve",
      "outputs": [
        {
          "internalType": "bool",
          "name": "",
          "type": "bool"
        }
      ],
      "stateMutability": "nonpayable",
      "type": "function"
    },
    {
      "inputs": [
        {
          "internalType": "address",
          "name": "account",
          "type": "address"
        }
      ],
      "name": "balanceOf",
      "outputs": [
        {
          "internalType": "uint256",
          "name": "",
          "type": "uint256"
        }
      ],
      "stateMutability": "view",
      "type": "function"
    },
    {
      "inputs": [],
      "name": "buyTokens",
      "outputs": [],
      "stateMutability": "payable",
      "type": "function"
    },
    {
      "inputs": [],
      "name": "decimals",
      "outputs": [
        {
          "internalType": "uint8",
          "name": "",
          "type": "uint8"
        }
      ],
      "stateMutability": "view",
      "type": "function"
    },
    {
      "inputs": [
        {
          "internalType": "address",
          "name": "to",
          "type": "address"
        },
        {
          "internalType": "uint256",
          "name": "amount",
          "type": "uint256"
        }
      ],
      "name": "mint",
      "outputs": [],
      "stateMutability": "nonpayable",
      "type": "function"
    },
    {
      "inputs": [],
      "name": "name",
      "outputs": [
        {
          "internalType": "string",
          "name": "",
          "type": "string"
        }
      ],
      "stateMutability": "view",
      "type": "function"
    },
    {
      "inputs": [],
      "name": "owner",
      "outputs": [
        {
          "internalType": "address",
          "name": "",
          "type": "address"
        }
      ],
      "stateMutability": "view",
      "type": "function"
    },
    {
      "inputs": [],
      "name": "renounceOwnership",
      "outputs": [],
      "stateMutability": "nonpayable",
      "type": "function"
    },
    {
      "inputs": [
        {
          "internalType": "uint256",
          "name": "newPrice",
          "type": "uint256"
        }
      ],
      "name": "setTokenPrice",
      "outputs": [],
      "stateMutability": "nonpayable",
      "type": "function"
    },
    {
      "inputs": [],
      "name": "symbol",
      "outputs": [
        {
          "internalType": "string",
          "name": "",
          "type": "string"
        }
      ],
      "stateMutability": "view",
      "type": "function"
    },
    {
      "inputs": [],
      "name": "tokenPrice",
      "outputs": [
        {
          "internalType": "uint256",
          "name": "",
          "type": "uint256"
        }
      ],
      "stateMutability": "view",
      "type": "function"
    },
    {
      "inputs": [],
      "name": "totalSupply",
      "outputs": [
        {
          "internalType": "uint256",
          "name": "",
          "type": "uint256"
        }
      ],
      "stateMutability": "view",
      "type": "function"
    },
    {
      "inputs": [
        {
          "internalType": "address",
          "name": "to",
          "type": "address"
        },
        {
          "internalType": "uint256",
          "name": "value",
          "type": "uint256"
        }
      ],
      "name": "transfer",
      "outputs": [
        {
          "internalType": "bool",
          "name": "",
          "type": "bool"
        }
      ],
      "stateMutability": "nonpayable",
      "type": "function"
    },
    {
      "inputs": [
        {
          "internalType": "address",
          "name": "from",
          "type": "address"
        },
        {
          "internalType": "address",
          "name": "to",
          "type": "address"
        },
        {
          "internalType": "uint256",
          "name": "value",
          "type": "uint256"
        }
      ],
      "name": "transferFrom",
      "outputs": [
        {
          "internalType": "bool",
          "name": "",
          "type": "bool"
        }
      ],
      "stateMutability": "nonpayable",
      "type": "function"
    },
    {
      "inputs": [
        {
          "internalType": "address",
          "name": "newOwner",
          "type": "address"
        }
      ],
      "name": "transferOwnership",
      "outputs": [],
      "stateMutability": "nonpayable",
      "type": "function"
    },
    {
      "inputs": [],
      "name": "withdrawETH",
      "outputs": [],
      "stateMutability": "nonpayable",
      "type": "function"
    }
  ],
  "bytecode": "0x608060405266038d7ea4c680006006553480156200001c57600080fd5b50604051620023c9380380620023c9833981810160405281019062000042919062000658565b338282816003908162000056919062000928565b50806004908162000068919062000928565b505050600073ffffffffffffffffffffffffffffffffffffffff168173ffffffffffffffffffffffffffffffffffffffff1603620000e05760006040517f1e4fbdf7000000000000000000000000000000000000000000000000000000008152600401620000d7919062000a54565b60405180910390fd5b620000f1816200013960201b60201c565b50620001313362000107620001ff60201b60201c565b600a62000115919062000c01565b620f424062000125919062000c52565b6200020860201b60201c565b505062000d43565b6000600560009054906101000a900473ffffffffffffffffffffffffffffffffffffffff16905081600560006101000a81548173ffffffffffffffffffffffffffffffffffffffff021916908373ffffffffffffffffffffffffffffffffffffffff1602179055508173ffffffffffffffffffffffffffffffffffffffff168173ffffffffffffffffffffffffffffffffffffffff167f8be0079c531659141344cd1fd0a4f28419497f9722a3daafe3b4186f6b6457e060405160405180910390a35050565b60006012905090565b600073ffffffffffffffffffffffffffffffffffffffff168273ffffffffffffffffffffffffffffffffffffffff16036200027d5760006040517fec442f0500000000000000000000000000000000000000000000000000000000815260040162000274919062000a54565b60405180910390fd5b62000291600083836200029560201b60201c565b5050565b600073ffffffffffffffffffffffffffffffffffffffff168373ffffffffffffffffffffffffffffffffffffffff1603620002eb578060026000828254620002de919062000c9d565b92505081905550620003c1565b60008060008573ffffffffffffffffffffffffffffffffffffffff1673ffffffffffffffffffffffffffffffffffffffff168152602001908152602001600020549050818110156200037a578381836040517fe450d38c000000000000000000000000000000000000000000000000000000008152600401620003719392919062000ce9565b60405180910390fd5b8181036000808673ffffffffffffffffffffffffffffffffffffffff1673ffffffffffffffffffffffffffffffffffffffff16815260200190815260200160002081905550505b600073ffffffffffffffffffffffffffffffffffffffff168273ffffffffffffffffffffffffffffffffffffffff16036200040c578060026000828254039250508190555062000459565b806000808473ffffffffffffffffffffffffffffffffffffffff1673ffffffffffffffffffffffffffffffffffffffff168152602001908152602001600020600082825401925050819055505b8173ffffffffffffffffffffffffffffffffffffffff168373ffffffffffffffffffffffffffffffffffffffff167fddf252ad1be2c89b69c2b068fc378daa952ba7f163c4a11628f55a4df523b3ef83604051620004b8919062000d26565b60405180910390a3505050565b6000604051905090565b600080fd5b600080fd5b600080fd5b600080fd5b6000601f19601f8301169050919050565b7f4e487b7100000000000000000000000000000000000000000000000000000000600052604160045260246000fd5b6200052e82620004e3565b810181811067ffffffffffffffff8211171562000550576200054f620004f4565b5b80604052505050565b600062000565620004c5565b905062000573828262000523565b919050565b600067ffffffffffffffff821115620005965762000595620004f4565b5b620005a182620004e3565b9050602081019050919050565b60005b83811015620005ce578082015181840152602081019050620005b1565b60008484015250505050565b6000620005f1620005eb8462000578565b62000559565b90508281526020810184848401111562000610576200060f620004de565b5b6200061d848285620005ae565b509392505050565b600082601f8301126200063d576200063c620004d9565b5b81516200064f848260208601620005da565b91505092915050565b60008060408385031215620006725762000671620004cf565b5b600083015167ffffffffffffffff811115620006935762000692620004d4565b5b620006a18582860162000625565b925050602083015167ffffffffffffffff811115620006c557620006c4620004d4565b5b620006d38582860162000625565b9150509250929050565b600081519050919050565b7f4e487b7100000000000000000000000000000000000000000000000000000000600052602260045260246000fd5b600060028204905060018216806200073057607f821691505b602082108103620007465762000745620006e8565b5b50919050565b60008190508160005260206000209050919050565b60006020601f8301049050919050565b600082821b905092915050565b600060088302620007b07fffffffffffffffffffffffffffffffffffffffffffffffffffffffffffffffff8262000771565b620007bc868362000771565b95508019841693508086168417925050509392505050565b6000819050919050565b6000819050919050565b60006200080962000803620007fd84620007d4565b620007de565b620007d4565b9050919050565b6000819050919050565b6200082583620007e8565b6200083d620008348262000810565b8484546200077e565b825550505050565b600090565b6200085462000845565b620008618184846200081a565b505050565b5b8181101562000889576200087d6000826200084a565b60018101905062000867565b5050565b601f821115620008d857620008a2816200074c565b620008ad8462000761565b81016020851015620008bd578190505b620008d5620008cc8562000761565b83018262000866565b50505b505050565b600082821c905092915050565b6000620008fd60001984600802620008dd565b1980831691505092915050565b6000620009188383620008ea565b9150826002028217905092915050565b6200093382620006dd565b67ffffffffffffffff8111156200094f576200094e620004f4565b5b6200095b825462000717565b620009688282856200088d565b600060209050601f831160018114620009a057600084156200098b578287015190505b6200099785826200090a565b86555062000a07565b601f198416620009b0866200074c565b60005b82811015620009da57848901518255600182019150602085019450602081019050620009b3565b86831015620009fa5784890151620009f6601f891682620008ea565b8355505b6001600288020188555050505b505050505050565b600073ffffffffffffffffffffffffffffffffffffffff82169050919050565b600062000a3c8262000a0f565b9050919050565b62000a4e8162000a2f565b82525050565b600060208201905062000a6b600083018462000a43565b92915050565b7f4e487b7100000000000000000000000000000000000000000000000000000000600052601160045260246000fd5b60008160011c9050919050565b6000808291508390505b600185111562000aff5780860481111562000ad75762000ad662000a71565b5b600185161562000ae75780820291505b808102905062000af78562000aa0565b945062000ab7565b94509492505050565b60008262000b1a576001905062000bed565b8162000b2a576000905062000bed565b816001811462000b43576002811462000b4e5762000b84565b600191505062000bed565b60ff84111562000b635762000b6262000a71565b5b8360020a91508482111562000b7d5762000b7c62000a71565b5b5062000bed565b5060208310610133831016604e8410600b841016171562000bbe5782820a90508381111562000bb85762000bb762000a71565b5b62000bed565b62000bcd848484600162000aad565b9250905081840481111562000be75762000be662000a71565b5b81810290505b9392505050565b600060ff82169050919050565b600062000c0e82620007d4565b915062000c1b8362000bf4565b925062000c4a7fffffffffffffffffffffffffffffffffffffffffffffffffffffffffffffffff848462000b08565b905092915050565b600062000c5f82620007d4565b915062000c6c83620007d4565b925082820262000c7c81620007d4565b9150828204841483151762000c965762000c9562000a71565b5b5092915050565b600062000caa82620007d4565b915062000cb783620007d4565b925082820190508082111562000cd25762000cd162000a71565b5b92915050565b62000ce381620007d4565b82525050565b600060608201905062000d00600083018662000a43565b62000d0f602083018562000cd8565b62000d1e604083018462000cd8565b949350505050565b600060208201905062000d3d600083018462000cd8565b92915050565b6116768062000d536000396000f3fe6080604052600436106100fe5760003560e01c8063715018a611610095578063a9059cbb11610064578063a9059cbb14610325578063d0febe4c14610362578063dd62ed3e1461036c578063e086e5ec146103a9578063f2fde38b146103c0576100fe565b8063715018a61461028d5780637ff9b596146102a45780638da5cb5b146102cf57806395d89b41146102fa576100fe565b8063313ce567116100d1578063313ce567146101d357806340c10f19146101fe5780636a61e5fc1461022757806370a0823114610250576100fe565b806306fdde0314610103578063095ea7b31461012e57806318160ddd1461016b57806323b872dd14610196575b600080fd5b34801561010f57600080fd5b506101186103e9565b60405161012591906110b7565b60405180910390f35b34801561013a57600080fd5b5061015560048036038101906101509190611172565b61047b565b60405161016291906111cd565b60405180910390f35b34801561017757600080fd5b5061018061049e565b60405161018d91906111f7565b60405180910390f35b3480156101a257600080fd5b506101bd60048036038101906101b89190611212565b6104a8565b6040516101ca91906111cd565b60405180910390f35b3480156101df57600080fd5b506101e86104d7565b6040516101f59190611281565b60405180910390f35b34801561020a57600080fd5b5061022560048036038101906102209190611172565b6104e0565b005b34801561023357600080fd5b5061024e6004803603810190610249919061129c565b6104f6565b005b34801561025c57600080fd5b50610277600480360381019061027291906112c9565b61054b565b60405161028491906111f7565b60405180910390f35b34801561029957600080fd5b506102a2610593565b005b3480156102b057600080fd5b506102b96105a7565b6040516102c691906111f7565b60405180910390f35b3480156102db57600080fd5b506102e46105ad565b6040516102f19190611305565b60405180910390f35b34801561030657600080fd5b5061030f6105d7565b60405161031c91906110b7565b60405180910390f35b34801561033157600080fd5b5061034c60048036038101906103479190611172565b610669565b60405161035991906111cd565b60405180910390f35b61036a61068c565b005b34801561037857600080fd5b50610393600480360381019061038e9190611320565b610755565b6040516103a091906111f7565b60405180910390f35b3480156103b557600080fd5b506103be6107dc565b005b3480156103cc57600080fd5b506103e760048036038101906103e291906112c9565b610834565b005b6060600380546103f89061138f565b80601f01602080910402602001604051908101604052809291908181526020018280546104249061138f565b80156104715780601f1061044657610100808354040283529160200191610471565b820191906000526020600020905b81548152906001019060200180831161045457829003601f168201915b5050505050905090565b6000806104866108ba565b90506104938185856108c2565b600191505092915050565b6000600254905090565b6000806104b36108ba565b90506104c08582856108d4565b6104cb858585610968565b60019150509392505050565b60006012905090565b6104e8610a5c565b6104f28282610ae3565b5050565b6104fe610a5c565b60008111610541576040517f08c379a00000000000000000000000000000000000000000000000000000000081526004016105389061140c565b60405180910390fd5b8060068190555050565b60008060008373ffffffffffffffffffffffffffffffffffffffff1673ffffffffffffffffffffffffffffffffffffffff168152602001908152602001600020549050919050565b61059b610a5c565b6105a56000610b65565b565b60065481565b6000600560009054906101000a900473ffffffffffffffffffffffffffffffffffffffff16905090565b6060600480546105e69061138f565b80601f01602080910402602001604051908101604052809291908181526020018280546106129061138f565b801561065f5780601f106106345761010080835404028352916020019161065f565b820191906000526020600020905b81548152906001019060200180831161064257829003601f168201915b5050505050905090565b6000806106746108ba565b9050610681818585610968565b600191505092915050565b600034116106cf576040517f08c379a00000000000000000000000000000000000000000000000000000000081526004016106c690611478565b60405180910390fd5b60006006546103e8346106e291906114c7565b6106ec9190611538565b9050806106ff6106fa6105ad565b61054b565b1015610740576040517f08c379a0000000000000000000000000000000000000000000000000000000008152600401610737906115b5565b60405180910390fd5b61075261074b6105ad565b3383610968565b50565b6000600160008473ffffffffffffffffffffffffffffffffffffffff1673ffffffffffffffffffffffffffffffffffffffff16815260200190815260200160002060008373ffffffffffffffffffffffffffffffffffffffff1673ffffffffffffffffffffffffffffffffffffffff16815260200190815260200160002054905092915050565b6107e4610a5c565b6107ec6105ad565b73ffffffffffffffffffffffffffffffffffffffff166108fc479081150290604051600060405180830381858888f19350505050158015610831573d6000803e3d6000fd5b50565b61083c610a5c565b600073ffffffffffffffffffffffffffffffffffffffff168173ffffffffffffffffffffffffffffffffffffffff16036108ae5760006040517f1e4fbdf70000000000000000000000000000000000000000000000000000000081526004016108a59190611305565b60405180910390fd5b6108b781610b65565b50565b600033905090565b6108cf8383836001610c2b565b505050565b60006108e08484610755565b90507fffffffffffffffffffffffffffffffffffffffffffffffffffffffffffffffff81146109625781811015610952578281836040517ffb8f41b2000000000000000000000000000000000000000000000000000000008152600401610949939291906115d5565b60405180910390fd5b61096184848484036000610c2b565b5b50505050565b600073ffffffffffffffffffffffffffffffffffffffff168373ffffffffffffffffffffffffffffffffffffffff16036109da5760006040517f96c6fd1e0000000000000000000000000000000000000000000000000000000081526004016109d19190611305565b60405180910390fd5b600073ffffffffffffffffffffffffffffffffffffffff168273ffffffffffffffffffffffffffffffffffffffff1603610a4c5760006040517fec442f05000000000000000000000000000000000000000000000000000000008152600401610a439190611305565b60405180910390fd5b610a57838383610e02565b505050565b610a646108ba565b73ffffffffffffffffffffffffffffffffffffffff16610a826105ad565b73ffffffffffffffffffffffffffffffffffffffff1614610ae157610aa56108ba565b6040517f118cdaa7000000000000000000000000000000000000000000000000000000008152600401610ad89190611305565b60405180910390fd5b565b600073ffffffffffffffffffffffffffffffffffffffff168273ffffffffffffffffffffffffffffffffffffffff1603610b555760006040517fec442f05000000000000000000000000000000000000000000000000000000008152600401610b4c9190611305565b60405180910390fd5b610b6160008383610e02565b5050565b6000600560009054906101000a900473ffffffffffffffffffffffffffffffffffffffff16905081600560006101000a81548173ffffffffffffffffffffffffffffffffffffffff021916908373ffffffffffffffffffffffffffffffffffffffff1602179055508173ffffffffffffffffffffffffffffffffffffffff168173ffffffffffffffffffffffffffffffffffffffff167f8be0079c531659141344cd1fd0a4f28419497f9722a3daafe3b4186f6b6457e060405160405180910390a35050565b600073ffffffffffffffffffffffffffffffffffffffff168473ffffffffffffffffffffffffffffffffffffffff1603610c9d5760006040517fe602df05000000000000000000000000000000000000000000000000000000008152600401610c949190611305565b60405180910390fd5b600073ffffffffffffffffffffffffffffffffffffffff168373ffffffffffffffffffffffffffffffffffffffff1603610d0f5760006040517f94280d62000000000000000000000000000000000000000000000000000000008152600401610d069190611305565b60405180910390fd5b81600160008673ffffffffffffffffffffffffffffffffffffffff1673ffffffffffffffffffffffffffffffffffffffff16815260200190815260200160002060008573ffffffffffffffffffffffffffffffffffffffff1673ffffffffffffffffffffffffffffffffffffffff168152602001908152602001600020819055508015610dfc578273ffffffffffffffffffffffffffffffffffffffff168473ffffffffffffffffffffffffffffffffffffffff167f8c5be1e5ebec7d5bd14f71427d1e84f3dd0314c0f7b2291e5b200ac8c7c3b92584604051610df391906111f7565b60405180910390a35b50505050565b600073ffffffffffffffffffffffffffffffffffffffff168373ffffffffffffffffffffffffffffffffffffffff1603610e54578060026000828254610e48919061160c565b92505081905550610f27565b60008060008573ffffffffffffffffffffffffffffffffffffffff1673ffffffffffffffffffffffffffffffffffffffff16815260200190815260200160002054905081811015610ee0578381836040517fe450d38c000000000000000000000000000000000000000000000000000000008152600401610ed7939291906115d5565b60405180910390fd5b8181036000808673ffffffffffffffffffffffffffffffffffffffff1673ffffffffffffffffffffffffffffffffffffffff16815260200190815260200160002081905550505b600073ffffffffffffffffffffffffffffffffffffffff168273ffffffffffffffffffffffffffffffffffffffff1603610f705780600260008282540392505081905550610fbd565b806000808473ffffffffffffffffffffffffffffffffffffffff1673ffffffffffffffffffffffffffffffffffffffff168152602001908152602001600020600082825401925050819055505b8173ffffffffffffffffffffffffffffffffffffffff168373ffffffffffffffffffffffffffffffffffffffff167fddf252ad1be2c89b69c2b068fc378daa952ba7f163c4a11628f55a4df523b3ef8360405161101a91906111f7565b60405180910390a3505050565b600081519050919050565b600082825260208201905092915050565b60005b83811015611061578082015181840152602081019050611046565b60008484015250505050565b6000601f19601f8301169050919050565b600061108982611027565b6110938185611032565b93506110a3818560208601611043565b6110ac8161106d565b840191505092915050565b600060208201905081810360008301526110d1818461107e565b905092915050565b600080fd5b600073ffffffffffffffffffffffffffffffffffffffff82169050919050565b6000611109826110de565b9050919050565b611119816110fe565b811461112457600080fd5b50565b60008135905061113681611110565b92915050565b6000819050919050565b61114f8161113c565b811461115a57600080fd5b50565b60008135905061116c81611146565b92915050565b60008060408385031215611189576111886110d9565b5b600061119785828601611127565b92505060206111a88582860161115d565b9150509250929050565b60008115159050919050565b6111c7816111b2565b82525050565b60006020820190506111e260008301846111be565b92915050565b6111f18161113c565b82525050565b600060208201905061120c60008301846111e8565b92915050565b60008060006060848603121561122b5761122a6110d9565b5b600061123986828701611127565b935050602061124a86828701611127565b925050604061125b8682870161115d565b9150509250925092565b600060ff82169050919050565b61127b81611265565b82525050565b60006020820190506112966000830184611272565b92915050565b6000602082840312156112b2576112b16110d9565b5b60006112c08482850161115d565b91505092915050565b6000602082840312156112df576112de6110d9565b5b60006112ed84828501611127565b91505092915050565b6112ff816110fe565b82525050565b600060208201905061131a60008301846112f6565b92915050565b60008060408385031215611337576113366110d9565b5b600061134585828601611127565b925050602061135685828601611127565b9150509250929050565b7f4e487b7100000000000000000000000000000000000000000000000000000000600052602260045260246000fd5b600060028204905060018216806113a757607f821691505b6020821081036113ba576113b9611360565b5b50919050565b7f5072696365206d7573742062652067726561746572207468616e203000000000600082015250565b60006113f6601c83611032565b9150611401826113c0565b602082019050919050565b60006020820190508181036000830152611425816113e9565b9050919050565b7f53656e642045544820746f2062757920746f6b656e7300000000000000000000600082015250565b6000611462601683611032565b915061146d8261142c565b602082019050919050565b6000602082019050818103600083015261149181611455565b9050919050565b7f4e487b7100000000000000000000000000000000000000000000000000000000600052601160045260246000fd5b60006114d28261113c565b91506114dd8361113c565b92508282026114eb8161113c565b9150828204841483151761150257611501611498565b5b5092915050565b7f4e487b7100000000000000000000000000000000000000000000000000000000600052601260045260246000fd5b60006115438261113c565b915061154e8361113c565b92508261155e5761155d611509565b5b828204905092915050565b7f496e73756666696369656e7420746f6b656e7320696e20636f6e747261637400600082015250565b600061159f601f83611032565b91506115aa82611569565b602082019050919050565b600060208201905081810360008301526115ce81611592565b9050919050565b60006060820190506115ea60008301866112f6565b6115f760208301856111e8565b61160460408301846111e8565b949350505050565b60006116178261113c565b91506116228361113c565b925082820190508082111561163a57611639611498565b5b9291505056fea264697066735822122013924d70a32ecdd6d56e38dc19f2d27528acf92f49081058ef9abfbb9fa2e5c964736f6c63430008140033",
  "linkReferences": {},
  "deployedLinkReferences": {}
}